:020000040800F2
:1000000000500020E1010008290200082902000830
:100010002902000829020008290200080000000047
:10002000000000000000000000000000290200089D
:100030002902000800000000290200082902000827
:1000400029020008290200082902000829020008E4
:1000500029020008290200082902000829020008D4
:1000600029020008290200082902000829020008C4
:1000700029020008290200082902000829020008B4
:1000800029020008290200082902000829020008A4
:100090002902000829020008290200082902000894
:1000A0002902000829020008290200082902000884
:1000B0002902000829020008290200082902000874
:1000C0002902000829020008290200082902000864
:1000D0002902000829020008290200082902000854
:1000E0002902000829020008290200080000000077
:1000F0000000000000000000000000000000000000
:0C01000000000000000000005FF808F1A3
:10010C0010B5054C237833B9044B13B10448AFF345
:10011C0000800123237010BD0000002000000000AF
:10012C007402000808B5034B1BB103490348AFF335
:10013C00008008BD000000000400002074020008CC
:10014C000F4A936943F0080393610E4B03221A6024
:10015C0011E001339BB24FF6FF729342F9D1094B78
:10016C004FF480321A61002301E001339BB24FF649
:10017C00FF729342F9D1034B01221A610023EAE783
:10018C0000100240000C01400F4B1A6842F00102B3
:10019C001A6059680D4A0A405A601A6822F0847233
:1001AC0022F480321A601A6822F480221A605A688B
:1001BC0022F4FE025A604FF41F029A60044B4FF077
:1001CC0000629A60704700BF001002400000FFF808
:1001DC0000ED00E00C480D490D4A002302E0D45814
:1001EC00C4500433C4188C42F9D30A4A0A4C002375
:1001FC0001E013600432A242FBD3FFF7C5FF00F00D
:10020C000FF8FFF79DFF7047000000200000002052
:10021C0094020008000000201C000020FEE70000F3
:10022C0070B500260C4D0D4C641BA410A64209D1D0
:10023C0000F01AF800260A4D0A4C641BA410A642C2
:10024C0005D170BD55F8043B98470136EEE755F8DB
:10025C00043B98470136F2E78C0200088C02000838
:10026C008C02000890020008F8B500BFF8BC08BC6E
:10027C009E467047F8B500BFF8BC08BC9E46704758
:04028C003101000834
:040290000D01000854
:04000005080001E10D
:00000001FF
